:020000040000FA
:0400000061EF0FF0AD
:101EBE00000F0F00BE0EF66E1E0EF76E000EF86EC1
:101ECE0000EE0FF010EE04F00900F5CFEEFFE55036
:101EDE00E150FAE10E6A0D6A0C6A0B6A0A6A096A27
:101EEE0000017AEF0FF09268000E936E000E946E62
:101EFE00000E956E000E806E000E816E000E826ECC
:101F0E00000E836E8BEF0FF0000E086E190E076E2B
:101F1E0097EC0FF08BEF0FF08BEF0FF000EF00F060
:101F2E0007C001F008C002F0C8EC0FF0040E816E7D
:101F3E0007C001F008C002F0C8EC0FF0060E816E6B
:101F4E0007C001F008C002F0C8EC0FF0020E816E5F
:101F5E0007C001F008C002F0C8EC0FF0030E816E4E
:101F6E0007C001F008C002F0C8EC0FF0010E816E40
:101F7E0007C001F008C002F0C8EC0FF0050E816E2C
:101F8E001200000E046E000E036EF2EF0FF0000E44
:101F9E00066E000E056E065008E10528D8A0DAEF91
:101FAE000FF0DCEF0FF0E0EF0FF0EEEF0FF0EEEFD3
:101FBE000FF0054A062A065008E10528D8A0EAEFD8
:101FCE000FF0ECEF0FF0E0EF0FF0EEEF0FF0034A33
:101FDE00042AF2EF0FF00150035C02500458D8A00F
:101FEE00FBEF0FF0FDEF0FF0CEEF0FF0FFEF0FF066
:021FFE001200CF
:020000040020DA
:08000000FFFFFFFFFFFFFFFF00
:020000040030CA
:0E000000FF081F1EFF8381FF03C003E00340C3
:00000001FF
